{"abi":[{"type":"function","name":"CHAIN_ID","inputs":[],"outputs":[{"name":"","type":"uint32","internalType":"uint32"}],"stateMutability":"view"},{"type":"function","name":"_isPayloadValid","inputs":[{"name":"oracle","type":"address","internalType":"address"},{"name":"payload","type":"bytes","internalType":"bytes"}],"outputs":[{"name":"","type":"bool","internalType":"bool"}],"stateMutability":"view"},{"type":"function","name":"arePayloadsValid","inputs":[{"name":"payloads","type":"bytes[]","internalType":"bytes[]"}],"outputs":[{"name":"","type":"bool","internalType":"bool"}],"stateMutability":"view"},{"type":"function","name":"call","inputs":[{"name":"trueAmount","type":"uint256","internalType":"uint256"},{"name":"output","type":"tuple","internalType":"struct OutputDescription","components":[{"name":"remoteOracle","type":"bytes32","internalType":"bytes32"},{"name":"remoteFiller","type":"bytes32","internalType":"bytes32"},{"name":"chainId","type":"uint256","internalType":"uint256"},{"name":"token","type":"bytes32","internalType":"bytes32"},{"name":"amount","type":"uint256","internalType":"uint256"},{"name":"recipient","type":"bytes32","internalType":"bytes32"},{"name":"remoteCall","type":"bytes","internalType":"bytes"},{"name":"fulfillmentContext","type":"bytes","internalType":"bytes"}]}],"outputs":[],"stateMutability":"nonpayable"},{"type":"function","name":"fill","inputs":[{"name":"orderId","type":"bytes32","internalType":"bytes32"},{"name":"output","type":"tuple","internalType":"struct OutputDescription","components":[{"name":"remoteOracle","type":"bytes32","internalType":"bytes32"},{"name":"remoteFiller","type":"bytes32","internalType":"bytes32"},{"name":"chainId","type":"uint256","internalType":"uint256"},{"name":"token","type":"bytes32","internalType":"bytes32"},{"name":"amount","type":"uint256","internalType":"uint256"},{"name":"recipient","type":"bytes32","internalType":"bytes32"},{"name":"remoteCall","type":"bytes","internalType":"bytes"},{"name":"fulfillmentContext","type":"bytes","internalType":"bytes"}]},{"name":"proposedSolver","type":"bytes32","internalType":"bytes32"}],"outputs":[{"name":"","type":"bytes32","internalType":"bytes32"}],"stateMutability":"nonpayable"},{"type":"function","name":"fillSkip","inputs":[{"name":"orderIds","type":"bytes32[]","internalType":"bytes32[]"},{"name":"outputs","type":"tuple[]","internalType":"struct OutputDescription[]","components":[{"name":"remoteOracle","type":"bytes32","internalType":"bytes32"},{"name":"remoteFiller","type":"bytes32","internalType":"bytes32"},{"name":"chainId","type":"uint256","internalType":"uint256"},{"name":"token","type":"bytes32","internalType":"bytes32"},{"name":"amount","type":"uint256","internalType":"uint256"},{"name":"recipient","type":"bytes32","internalType":"bytes32"},{"name":"remoteCall","type":"bytes","internalType":"bytes"},{"name":"fulfillmentContext","type":"bytes","internalType":"bytes"}]},{"name":"filler","type":"bytes32","internalType":"bytes32"}],"outputs":[],"stateMutability":"nonpayable"},{"type":"function","name":"fillThrow","inputs":[{"name":"orderIds","type":"bytes32[]","internalType":"bytes32[]"},{"name":"outputs","type":"tuple[]","internalType":"struct OutputDescription[]","components":[{"name":"remoteOracle","type":"bytes32","internalType":"bytes32"},{"name":"remoteFiller","type":"bytes32","internalType":"bytes32"},{"name":"chainId","type":"uint256","internalType":"uint256"},{"name":"token","type":"bytes32","internalType":"bytes32"},{"name":"amount","type":"uint256","internalType":"uint256"},{"name":"recipient","type":"bytes32","internalType":"bytes32"},{"name":"remoteCall","type":"bytes","internalType":"bytes"},{"name":"fulfillmentContext","type":"bytes","internalType":"bytes"}]},{"name":"filler","type":"bytes32","internalType":"bytes32"}],"outputs":[],"stateMutability":"nonpayable"},{"type":"event","name":"OutputFilled","inputs":[{"name":"orderId","type":"bytes32","indexed":false,"internalType":"bytes32"},{"name":"solver","type":"bytes32","indexed":false,"internalType":"bytes32"},{"name":"timestamp","type":"uint32","indexed":false,"internalType":"uint32"},{"name":"output","type":"tuple","indexed":false,"internalType":"struct OutputDescription","components":[{"name":"remoteOracle","type":"bytes32","internalType":"bytes32"},{"name":"remoteFiller","type":"bytes32","internalType":"bytes32"},{"name":"chainId","type":"uint256","internalType":"uint256"},{"name":"token","type":"bytes32","internalType":"bytes32"},{"name":"amount","type":"uint256","internalType":"uint256"},{"name":"recipient","type":"bytes32","internalType":"bytes32"},{"name":"remoteCall","type":"bytes","internalType":"bytes"},{"name":"fulfillmentContext","type":"bytes","internalType":"bytes"}]}],"anonymous":false},{"type":"error","name":"DifferentRemoteOracles","inputs":[]},{"type":"error","name":"FilledBySomeoneElse","inputs":[{"name":"solver","type":"bytes32","internalType":"bytes32"}]},{"type":"error","name":"FulfillmentContextCallOutOfRange","inputs":[]},{"type":"error","name":"NotEnoughGasExecution","inputs":[]},{"type":"error","name":"NotImplemented","inputs":[]},{"type":"error","name":"RemoteCallOutOfRange","inputs":[]},{"type":"error","name":"SlopeStopped","inputs":[]},{"type":"error","name":"WrongChain","inputs":[{"name":"expected","type":"uint256","internalType":"uint256"},{"name":"actual","type":"uint256","internalType":"uint256"}]},{"type":"error","name":"WrongRemoteFiller","inputs":[{"name":"addressThis","type":"bytes32","internalType":"bytes32"},{"name":"expected","type":"bytes32","internalType":"bytes32"}]},{"type":"error","name":"ZeroValue","inputs":[]}],"bytecode":{"object":"0x60c0806040523460355763ffffffff46166080523060a052610e66908161003a8239608051816101ed015260a051816109ed0152f35b5f80fdfe60806040526004361015610011575f80fd5b5f3560e01c80634aede03e1461030657806364ae96ec146102955780637e61c4081461021157806385e1f4d0146101b3578063991421f31461011d578063ae948682146100ce5763dec85d8e14610066575f80fd5b346100ca5760207ffffffffffffffffffffffffffffffffffffffffffffffffffffffffffffffffc3601126100ca5760043567ffffffffffffffff81116100ca576100c06100ba60209236906004016103a2565b9061058f565b6040519015158152f35b5f80fd5b346100ca576100dc366103d3565b90915f5b8381106100e957005b80610116846100fb600194898b610635565b35610107848988610672565b610110816107e0565b916109d2565b50016100e0565b346100ca5760607ffffffffffffffffffffffffffffffffffffffffffffffffffffffffffffffffc3601126100ca5760243567ffffffffffffffff81116100ca576101007ffffffffffffffffffffffffffffffffffffffffffffffffffffffffffffffffc8260040192360301126100ca576101ab602091604435906101a2816107e0565b906004356109d2565b604051908152f35b346100ca575f7ffffffffffffffffffffffffffffffffffffffffffffffffffffffffffffffffc3601126100ca57602060405163ffffffff7f0000000000000000000000000000000000000000000000000000000000000000168152f35b346100ca5760407ffffffffffffffffffffffffffffffffffffffffffffffffffffffffffffffffc3601126100ca5760243567ffffffffffffffff81116100ca576101007ffffffffffffffffffffffffffffffffffffffffffffffffffffffffffffffffc82360301126100ca57336100ca57610293906004016004356106f0565b005b346100ca576102a3366103d3565b93915f5b8281106102b057005b6102cb866102bf838888610635565b35610107848787610672565b8681036102db57506001016102a7565b7f73f6912b000000000000000000000000000000000000000000000000000000005f5260045260245ffd5b346100ca5760407ffffffffffffffffffffffffffffffffffffffffffffffffffffffffffffffffc3601126100ca5760043573ffffffffffffffffffffffffffffffffffffffff811681036100ca5760243567ffffffffffffffff81116100ca57366023820112156100ca57806004013567ffffffffffffffff81116100ca5736602482840101116100ca5760209260246100c0930190610447565b9181601f840112156100ca5782359167ffffffffffffffff83116100ca576020808501948460051b0101116100ca57565b60607ffffffffffffffffffffffffffffffffffffffffffffffffffffffffffffffffc8201126100ca5760043567ffffffffffffffff81116100ca578161041c916004016103a2565b929092916024359067ffffffffffffffff82116100ca5761043f916004016103a2565b909160443590565b9091806044116100ca576104e4603c604051809373ffffffffffffffffffffffffffffffffffffffff60208301961686523060408301524660608301527fffffffffffffffffffffffffffffffffffffffffffffffffffffffffffffffbc810160448801608084013781015f8382015203017fffffffffffffffffffffffffffffffffffffffffffffffffffffffffffffffe081018352826105c7565b51902060208201355f525f60205260405f20905f5260205260405f209063ffffffff600183549301541691801561053757813503610531576040013560e01c0361052d57600190565b5f90565b50505f90565b5050505f90565b9035907fffffffffffffffffffffffffffffffffffffffffffffffffffffffffffffffe1813603018212156100ca570180359067ffffffffffffffff82116100ca576020019181360383136100ca57565b5f5b828110156105bf576105b26105ab8260051b84018461053e565b9033610447565b1561053757600101610591565b505050600190565b90601f7fffffffffffffffffffffffffffffffffffffffffffffffffffffffffffffffe0910116810190811067ffffffffffffffff82111761060857604052565b7f4e487b71000000000000000000000000000000000000000000000000000000005f52604160045260245ffd5b91908110156106455760051b0190565b7f4e487b71000000000000000000000000000000000000000000000000000000005f52603260045260245ffd5b91908110156106455760051b810135907fffffffffffffffffffffffffffffffffffffffffffffffffffffffffffffff01813603018212156100ca570190565b601f82602094937fffffffffffffffffffffffffffffffffffffffffffffffffffffffffffffffe093818652868601375f8582860101520116010190565b5f9182918273ffffffffffffffffffffffffffffffffffffffff60a061079c61071c60c087018761053e565b61077060409392935193849260208401997fc80b0e0f000000000000000000000000000000000000000000000000000000008b5260608c0135602486015260448501526060606485015260848401916106b2565b037fffffffffffffffffffffffffffffffffffffffffffffffffffffffffffffffe081018352826105c7565b5194013516620f4240f1156107ad57565b613e015a106107b857565b7f6bc33587000000000000000000000000000000000000000000000000000000005f5260045ffd5b60e081016107ee818361053e565b80915015610979577fff00000000000000000000000000000000000000000000000000000000000000610821838561053e565b90358281169160018110610964575b50501680158061095a575b610950577f0100000000000000000000000000000000000000000000000000000000000000149081610945575b50610895577fd6234725000000000000000000000000000000000000000000000000000000005f5260045ffd5b61089f908261053e565b5090608060018301359101359163ffffffff60058142169201351681811061091d570363ffffffff81116108f05763ffffffff16908181029181830414901517156108f05781018091116108f05790565b7f4e487b71000000000000000000000000000000000000000000000000000000005f52601160045260245ffd5b7ff88739a4000000000000000000000000000000000000000000000000000000005f5260045ffd5b60259150145f610868565b5050506080013590565b506001821461083b565b839250829060010360031b1b16165f80610830565b50506080013590565b90357fffffffffffffffffffffffffffffffffffffffffffffffffffffffffffffffe1823603018112156100ca57016020813591019167ffffffffffffffff82116100ca5781360383136100ca57565b908315610e0857604081013590814603610dd85760208101357f0000000000000000000000000000000000000000000000000000000000000000818103610daa575060c0820190610a23828461053e565b919060e0850195610a34878761053e565b93909461ffff8111610d825761ffff8511610d5a57879060608201359460808301359660a084013598818460405195869560208701983589528960408801528a60608801528b60808801528c60a08801528d60c08801528160f01b7fffff0000000000000000000000000000000000000000000000000000000000001660e088015260e28701378401918160f01b7fffff0000000000000000000000000000000000000000000000000000000000001660e284015260e48301370160e201600281015f9052036002017fffffffffffffffffffffffffffffffffffffffffffffffffffffffffffffffe081018252610b2c90826105c7565b51902099895f525f60205260405f208b5f5260205260405f205480610d4a575063ffffffff42169a604051906040820182811067ffffffffffffffff821117610608578d928f928e63ffffffff946001946040528352602083019586525f525f60205260405f20905f5260205260405f2090518155019151167fffffffffffffffffffffffffffffffffffffffffffffffffffffffff0000000082541617905573ffffffffffffffffffffffffffffffffffffffff8416604051908260605273ffffffffffffffffffffffffffffffffffffffff88166040523360601b602c526f23b872dd000000000000000000000000600c5260205f6064601c82855af1908160015f51141615610d2c575b50505f60605260405287610c4d888261053e565b9050610d1c575b5050604051998a998a528b60208b015260408a01526060890160809052863560808a015260a089015260c088015260e0870152610100860152610120850152610c9d9082610982565b61014085016101009052610180850190610cb6926106b2565b91610cc091610982565b7fffffffffffffffffffffffffffffffffffffffffffffffffffffffffffffff8084840301610160850152610cf592916106b2565b037fff619b01773078aaa421fae49c8eaa3cddf8151aab2b9c8ff18eff4b7f937a5991a190565b610d25916106f0565b5f87610c54565b3b153d171015610d3d575f80610c39565b637939f4245f526004601cfd5b9b50505050505050505050505090565b7fda72146f000000000000000000000000000000000000000000000000000000005f5260045ffd5b7f940c9fdb000000000000000000000000000000000000000000000000000000005f5260045ffd5b7fec19d8a5000000000000000000000000000000000000000000000000000000005f5260045260245260445ffd5b507f24497bc3000000000000000000000000000000000000000000000000000000005f524660045260245260445ffd5b7f7c946ed7000000000000000000000000000000000000000000000000000000005f5260045ffdfea26469706673582212202d31e9b67cd7a55152caf52c1831961cf8b9d2f4fef0fea891fdd5d8021582b264736f6c634300081c0033","linkReferences":{}},"methodIdentifiers":{"CHAIN_ID()":"85e1f4d0","_isPayloadValid(address,bytes)":"4aede03e","arePayloadsValid(bytes[])":"dec85d8e","call(uint256,(bytes32,bytes32,uint256,bytes32,uint256,bytes32,bytes,bytes))":"7e61c408","fill(bytes32,(bytes32,bytes32,uint256,bytes32,uint256,bytes32,bytes,bytes),bytes32)":"991421f3","fillSkip(bytes32[],(bytes32,bytes32,uint256,bytes32,uint256,bytes32,bytes,bytes)[],bytes32)":"ae948682","fillThrow(bytes32[],(bytes32,bytes32,uint256,bytes32,uint256,bytes32,bytes,bytes)[],bytes32)":"64ae96ec"},"id":97}