{"abi":[{"type":"constructor","inputs":[{"name":"compact","type":"address","internalType":"address"}],"stateMutability":"nonpayable"},{"type":"function","name":"COMPACT","inputs":[],"outputs":[{"name":"","type":"address","internalType":"contract TheCompact"}],"stateMutability":"view"},{"type":"function","name":"DOMAIN_SEPARATOR","inputs":[],"outputs":[{"name":"","type":"bytes32","internalType":"bytes32"}],"stateMutability":"view"},{"type":"function","name":"eip712Domain","inputs":[],"outputs":[{"name":"fields","type":"bytes1","internalType":"bytes1"},{"name":"name","type":"string","internalType":"string"},{"name":"version","type":"string","internalType":"string"},{"name":"chainId","type":"uint256","internalType":"uint256"},{"name":"verifyingContract","type":"address","internalType":"address"},{"name":"salt","type":"bytes32","internalType":"bytes32"},{"name":"extensions","type":"uint256[]","internalType":"uint256[]"}],"stateMutability":"view"},{"type":"function","name":"finaliseFor","inputs":[{"name":"order","type":"tuple","internalType":"struct CatalystCompactOrder","components":[{"name":"user","type":"address","internalType":"address"},{"name":"nonce","type":"uint256","internalType":"uint256"},{"name":"originChainId","type":"uint256","internalType":"uint256"},{"name":"fillDeadline","type":"uint32","internalType":"uint32"},{"name":"localOracle","type":"address","internalType":"address"},{"name":"inputs","type":"uint256[2][]","internalType":"uint256[2][]"},{"name":"outputs","type":"tuple[]","internalType":"struct OutputDescription[]","components":[{"name":"remoteOracle","type":"bytes32","internalType":"bytes32"},{"name":"remoteFiller","type":"bytes32","internalType":"bytes32"},{"name":"chainId","type":"uint256","internalType":"uint256"},{"name":"token","type":"bytes32","internalType":"bytes32"},{"name":"amount","type":"uint256","internalType":"uint256"},{"name":"recipient","type":"bytes32","internalType":"bytes32"},{"name":"remoteCall","type":"bytes","internalType":"bytes"},{"name":"fulfillmentContext","type":"bytes","internalType":"bytes"}]}]},{"name":"signatures","type":"bytes","internalType":"bytes"},{"name":"timestamps","type":"uint32[]","internalType":"uint32[]"},{"name":"solvers","type":"bytes32[]","internalType":"bytes32[]"},{"name":"destination","type":"address","internalType":"address"},{"name":"call","type":"bytes","internalType":"bytes"},{"name":"orderOwnerSignature","type":"bytes","internalType":"bytes"}],"outputs":[],"stateMutability":"nonpayable"},{"type":"function","name":"finaliseFor","inputs":[{"name":"order","type":"tuple","internalType":"struct CatalystCompactOrder","components":[{"name":"user","type":"address","internalType":"address"},{"name":"nonce","type":"uint256","internalType":"uint256"},{"name":"originChainId","type":"uint256","internalType":"uint256"},{"name":"fillDeadline","type":"uint32","internalType":"uint32"},{"name":"localOracle","type":"address","internalType":"address"},{"name":"inputs","type":"uint256[2][]","internalType":"uint256[2][]"},{"name":"outputs","type":"tuple[]","internalType":"struct OutputDescription[]","components":[{"name":"remoteOracle","type":"bytes32","internalType":"bytes32"},{"name":"remoteFiller","type":"bytes32","internalType":"bytes32"},{"name":"chainId","type":"uint256","internalType":"uint256"},{"name":"token","type":"bytes32","internalType":"bytes32"},{"name":"amount","type":"uint256","internalType":"uint256"},{"name":"recipient","type":"bytes32","internalType":"bytes32"},{"name":"remoteCall","type":"bytes","internalType":"bytes"},{"name":"fulfillmentContext","type":"bytes","internalType":"bytes"}]}]},{"name":"signatures","type":"bytes","internalType":"bytes"},{"name":"timestamps","type":"uint32[]","internalType":"uint32[]"},{"name":"solver","type":"bytes32","internalType":"bytes32"},{"name":"destination","type":"address","internalType":"address"},{"name":"call","type":"bytes","internalType":"bytes"},{"name":"orderOwnerSignature","type":"bytes","internalType":"bytes"}],"outputs":[],"stateMutability":"nonpayable"},{"type":"function","name":"finaliseSelf","inputs":[{"name":"order","type":"tuple","internalType":"struct CatalystCompactOrder","components":[{"name":"user","type":"address","internalType":"address"},{"name":"nonce","type":"uint256","internalType":"uint256"},{"name":"originChainId","type":"uint256","internalType":"uint256"},{"name":"fillDeadline","type":"uint32","internalType":"uint32"},{"name":"localOracle","type":"address","internalType":"address"},{"name":"inputs","type":"uint256[2][]","internalType":"uint256[2][]"},{"name":"outputs","type":"tuple[]","internalType":"struct OutputDescription[]","components":[{"name":"remoteOracle","type":"bytes32","internalType":"bytes32"},{"name":"remoteFiller","type":"bytes32","internalType":"bytes32"},{"name":"chainId","type":"uint256","internalType":"uint256"},{"name":"token","type":"bytes32","internalType":"bytes32"},{"name":"amount","type":"uint256","internalType":"uint256"},{"name":"recipient","type":"bytes32","internalType":"bytes32"},{"name":"remoteCall","type":"bytes","internalType":"bytes"},{"name":"fulfillmentContext","type":"bytes","internalType":"bytes"}]}]},{"name":"signatures","type":"bytes","internalType":"bytes"},{"name":"timestamps","type":"uint32[]","internalType":"uint32[]"},{"name":"solver","type":"bytes32","internalType":"bytes32"}],"outputs":[],"stateMutability":"nonpayable"},{"type":"function","name":"finaliseTo","inputs":[{"name":"order","type":"tuple","internalType":"struct CatalystCompactOrder","components":[{"name":"user","type":"address","internalType":"address"},{"name":"nonce","type":"uint256","internalType":"uint256"},{"name":"originChainId","type":"uint256","internalType":"uint256"},{"name":"fillDeadline","type":"uint32","internalType":"uint32"},{"name":"localOracle","type":"address","internalType":"address"},{"name":"inputs","type":"uint256[2][]","internalType":"uint256[2][]"},{"name":"outputs","type":"tuple[]","internalType":"struct OutputDescription[]","components":[{"name":"remoteOracle","type":"bytes32","internalType":"bytes32"},{"name":"remoteFiller","type":"bytes32","internalType":"bytes32"},{"name":"chainId","type":"uint256","internalType":"uint256"},{"name":"token","type":"bytes32","internalType":"bytes32"},{"name":"amount","type":"uint256","internalType":"uint256"},{"name":"recipient","type":"bytes32","internalType":"bytes32"},{"name":"remoteCall","type":"bytes","internalType":"bytes"},{"name":"fulfillmentContext","type":"bytes","internalType":"bytes"}]}]},{"name":"signatures","type":"bytes","internalType":"bytes"},{"name":"timestamps","type":"uint32[]","internalType":"uint32[]"},{"name":"solvers","type":"bytes32[]","internalType":"bytes32[]"},{"name":"destination","type":"address","internalType":"address"},{"name":"call","type":"bytes","internalType":"bytes"}],"outputs":[],"stateMutability":"nonpayable"},{"type":"function","name":"finaliseTo","inputs":[{"name":"order","type":"tuple","internalType":"struct CatalystCompactOrder","components":[{"name":"user","type":"address","internalType":"address"},{"name":"nonce","type":"uint256","internalType":"uint256"},{"name":"originChainId","type":"uint256","internalType":"uint256"},{"name":"fillDeadline","type":"uint32","internalType":"uint32"},{"name":"localOracle","type":"address","internalType":"address"},{"name":"inputs","type":"uint256[2][]","internalType":"uint256[2][]"},{"name":"outputs","type":"tuple[]","internalType":"struct OutputDescription[]","components":[{"name":"remoteOracle","type":"bytes32","internalType":"bytes32"},{"name":"remoteFiller","type":"bytes32","internalType":"bytes32"},{"name":"chainId","type":"uint256","internalType":"uint256"},{"name":"token","type":"bytes32","internalType":"bytes32"},{"name":"amount","type":"uint256","internalType":"uint256"},{"name":"recipient","type":"bytes32","internalType":"bytes32"},{"name":"remoteCall","type":"bytes","internalType":"bytes"},{"name":"fulfillmentContext","type":"bytes","internalType":"bytes"}]}]},{"name":"signatures","type":"bytes","internalType":"bytes"},{"name":"timestamps","type":"uint32[]","internalType":"uint32[]"},{"name":"solver","type":"bytes32","internalType":"bytes32"},{"name":"destination","type":"address","internalType":"address"},{"name":"call","type":"bytes","internalType":"bytes"}],"outputs":[],"stateMutability":"nonpayable"},{"type":"function","name":"orderIdentifier","inputs":[{"name":"order","type":"tuple","internalType":"struct CatalystCompactOrder","components":[{"name":"user","type":"address","internalType":"address"},{"name":"nonce","type":"uint256","internalType":"uint256"},{"name":"originChainId","type":"uint256","internalType":"uint256"},{"name":"fillDeadline","type":"uint32","internalType":"uint32"},{"name":"localOracle","type":"address","internalType":"address"},{"name":"inputs","type":"uint256[2][]","internalType":"uint256[2][]"},{"name":"outputs","type":"tuple[]","internalType":"struct OutputDescription[]","components":[{"name":"remoteOracle","type":"bytes32","internalType":"bytes32"},{"name":"remoteFiller","type":"bytes32","internalType":"bytes32"},{"name":"chainId","type":"uint256","internalType":"uint256"},{"name":"token","type":"bytes32","internalType":"bytes32"},{"name":"amount","type":"uint256","internalType":"uint256"},{"name":"recipient","type":"bytes32","internalType":"bytes32"},{"name":"remoteCall","type":"bytes","internalType":"bytes"},{"name":"fulfillmentContext","type":"bytes","internalType":"bytes"}]}]}],"outputs":[{"name":"","type":"bytes32","internalType":"bytes32"}],"stateMutability":"view"},{"type":"function","name":"purchaseOrder","inputs":[{"name":"orderId","type":"bytes32","internalType":"bytes32"},{"name":"order","type":"tuple","internalType":"struct CatalystCompactOrder","components":[{"name":"user","type":"address","internalType":"address"},{"name":"nonce","type":"uint256","internalType":"uint256"},{"name":"originChainId","type":"uint256","internalType":"uint256"},{"name":"fillDeadline","type":"uint32","internalType":"uint32"},{"name":"localOracle","type":"address","internalType":"address"},{"name":"inputs","type":"uint256[2][]","internalType":"uint256[2][]"},{"name":"outputs","type":"tuple[]","internalType":"struct OutputDescription[]","components":[{"name":"remoteOracle","type":"bytes32","internalType":"bytes32"},{"name":"remoteFiller","type":"bytes32","internalType":"bytes32"},{"name":"chainId","type":"uint256","internalType":"uint256"},{"name":"token","type":"bytes32","internalType":"bytes32"},{"name":"amount","type":"uint256","internalType":"uint256"},{"name":"recipient","type":"bytes32","internalType":"bytes32"},{"name":"remoteCall","type":"bytes","internalType":"bytes"},{"name":"fulfillmentContext","type":"bytes","internalType":"bytes"}]}]},{"name":"orderSolvedByIdentifier","type":"bytes32","internalType":"bytes32"},{"name":"purchaser","type":"address","internalType":"address"},{"name":"expiryTimestamp","type":"uint256","internalType":"uint256"},{"name":"newDestination","type":"address","internalType":"address"},{"name":"call","type":"bytes","internalType":"bytes"},{"name":"discount","type":"uint64","internalType":"uint64"},{"name":"timeToBuy","type":"uint32","internalType":"uint32"},{"name":"solverSignature","type":"bytes","internalType":"bytes"}],"outputs":[],"stateMutability":"nonpayable"},{"type":"function","name":"purchasedOrders","inputs":[{"name":"solver","type":"bytes32","internalType":"bytes32"},{"name":"orderId","type":"bytes32","internalType":"bytes32"}],"outputs":[{"name":"lastOrderTimestamp","type":"uint32","internalType":"uint32"},{"name":"purchaser","type":"address","internalType":"address"}],"stateMutability":"view"},{"type":"event","name":"Finalised","inputs":[{"name":"orderId","type":"bytes32","indexed":true,"internalType":"bytes32"},{"name":"solver","type":"bytes32","indexed":false,"internalType":"bytes32"},{"name":"destination","type":"address","indexed":false,"internalType":"address"}],"anonymous":false},{"type":"event","name":"OrderPurchased","inputs":[{"name":"orderId","type":"bytes32","indexed":true,"internalType":"bytes32"},{"name":"solver","type":"bytes32","indexed":false,"internalType":"bytes32"},{"name":"purchaser","type":"address","indexed":false,"internalType":"address"}],"anonymous":false},{"type":"error","name":"AlreadyPurchased","inputs":[]},{"type":"error","name":"Expired","inputs":[]},{"type":"error","name":"FulfillmentContextCallOutOfRange","inputs":[]},{"type":"error","name":"InitiateDeadlinePassed","inputs":[]},{"type":"error","name":"InvalidPurchaser","inputs":[]},{"type":"error","name":"InvalidSigner","inputs":[]},{"type":"error","name":"InvalidTimestampLength","inputs":[]},{"type":"error","name":"NotImplemented","inputs":[]},{"type":"error","name":"NotOrderOwner","inputs":[]},{"type":"error","name":"OrderIdMismatch","inputs":[{"name":"provided","type":"bytes32","internalType":"bytes32"},{"name":"computed","type":"bytes32","internalType":"bytes32"}]},{"type":"error","name":"RemoteCallOutOfRange","inputs":[]},{"type":"error","name":"WrongChain","inputs":[{"name":"expected","type":"uint256","internalType":"uint256"},{"name":"actual","type":"uint256","internalType":"uint256"}]}],"bytecode":{"object":"0x6101406040523461015757612e5a6020813803918261001d8161015b565b93849283398101031261015757516001600160a01b0381169081900361015757306080524660a05260a0610051604061015b565b600f815260208101906e21b0ba30b63cb9ba29b2ba3a3632b960891b8252610079604061015b565b9160088352602083019167436f6d706163743160c01b8352519020915190208160c0528060e052604051917f8b73c3c69bb8fe3d512ecc4cf759cc79239f7b179b0ffacaa9a75d522b39400f835260208301526040820152466060820152306080820152206101005261012052604051612cc5908161019582396080518181816103aa0152612606015260a05181818161038701526125e3015260c05181818161040c0152612678015260e051818181610432015261269e01526101005181818161036501526125c1015261012051818181610a43015261195b0152f35b5f80fd5b6040519190601f01601f191682016001600160401b0381118382101761018057604052565b634e487b7160e01b5f52604160045260245ffdfe60806040526004361015610011575f80fd5b5f3560e01c806259a946146100c35780632bfec373146100be5780633644e515146100b957806361abbc11146100b457806384b0196e146100af5780639632bc81146100aa5780639efa6120146100a5578063adf76dff146100a0578063b2e691661461009b578063bee395b7146100965763c2f749b914610091575f80fd5b6109f9565b61090d565b610844565b61075e565b6106e6565b610685565b6105ad565b6104a0565b610335565b610222565b610139565b908160e09103126100d65790565b5f80fd5b9181601f840112156100d65782359167ffffffffffffffff83116100d657602083818601950101116100d657565b9181601f840112156100d65782359167ffffffffffffffff83116100d6576020808501948460051b0101116100d657565b346100d65760807ffffffffffffffffffffffffffffffffffffffffffffffffffffffffffffffffc3601126100d65760043567ffffffffffffffff81116100d6576101889036906004016100c8565b60243567ffffffffffffffff81116100d6576101a89036906004016100da565b604435929167ffffffffffffffff84116100d6576101cd6101d9943690600401610108565b92909160643594610ac8565b005b73ffffffffffffffffffffffffffffffffffffffff8116036100d657565b60843590610206826101db565b565b60643590610206826101db565b60a43590610206826101db565b346100d65760e07ffffffffffffffffffffffffffffffffffffffffffffffffffffffffffffffffc3601126100d65760043567ffffffffffffffff81116100d6576102719036906004016100c8565b60243567ffffffffffffffff81116100d6576102919036906004016100da565b9160443567ffffffffffffffff81116100d6576102b2903690600401610108565b9060643567ffffffffffffffff81116100d6576102d3903690600401610108565b6102db6101f9565b9160a43567ffffffffffffffff81116100d6576102fc9036906004016100da565b95909460c4359967ffffffffffffffff8b116100d6576103236101d99b36906004016100da565b9a9099610d05565b5f9103126100d657565b346100d6575f7ffffffffffffffffffffffffffffffffffffffffffffffffffffffffffffffffc3601126100d6577f0000000000000000000000000000000000000000000000000000000000000000467f000000000000000000000000000000000000000000000000000000000000000014307f00000000000000000000000000000000000000000000000000000000000000001416156103dc575b602090604051908152f35b50602061046660a06040517f8b73c3c69bb8fe3d512ecc4cf759cc79239f7b179b0ffacaa9a75d522b39400f81527f000000000000000000000000000000000000000000000000000000000000000060208201527f000000000000000000000000000000000000000000000000000000000000000060408201524660608201523060808201522090565b90506103d1565b60e4359067ffffffffffffffff821682036100d657565b63ffffffff8116036100d657565b610104359061020682610484565b346100d6576101407ffffffffffffffffffffffffffffffffffffffffffffffffffffffffffffffffc3601126100d65760043560243567ffffffffffffffff81116100d6576104f39036906004016100c8565b604435916104ff610208565b60843561050a610215565b60c43567ffffffffffffffff81116100d65761052a9036906004016100da565b9161053361046d565b9361053c610492565b95610124359967ffffffffffffffff8b116100d6576105626101d99b36906004016100da565b9a9099610e30565b907fffffffffffffffffffffffffffffffffffffffffffffffffffffffffffffffe0601f602080948051918291828752018686015e5f8582860101520116010190565b346100d6575f7ffffffffffffffffffffffffffffffffffffffffffffffffffffffffffffffffc3601126100d6576106266106346105e9611c68565b6040929192519384937f0f00000000000000000000000000000000000000000000000000000000000000855260e0602086015260e085019061056a565b90838203604085015261056a565b4660608301523060808301525f60a083015281810360c083015260206060519182815201906080905f5b81811061066c575050500390f35b825184528594506020938401939092019160010161065e565b346100d65760207ffffffffffffffffffffffffffffffffffffffffffffffffffffffffffffffffc3601126100d65760043567ffffffffffffffff81116100d6576106de6106d960209236906004016100c8565b611deb565b604051908152f35b346100d65760407ffffffffffffffffffffffffffffffffffffffffffffffffffffffffffffffffc3601126100d657600435602435905f525f60205260405f20905f526020526040805f205473ffffffffffffffffffffffffffffffffffffffff82519163ffffffff8116835260201c166020820152f35b346100d65760c07ffffffffffffffffffffffffffffffffffffffffffffffffffffffffffffffffc3601126100d65760043567ffffffffffffffff81116100d6576107ad9036906004016100c8565b60243567ffffffffffffffff81116100d6576107cd9036906004016100da565b9160443567ffffffffffffffff81116100d6576107ee903690600401610108565b60643567ffffffffffffffff81116100d65761080e903690600401610108565b916108176101f9565b9360a4359767ffffffffffffffff89116100d65761083c6101d99936906004016100da565b9890976111fc565b346100d65760c07ffffffffffffffffffffffffffffffffffffffffffffffffffffffffffffffffc3601126100d65760043567ffffffffffffffff81116100d6576108939036906004016100c8565b60243567ffffffffffffffff81116100d6576108b39036906004016100da565b9160443567ffffffffffffffff81116100d6576108d4903690600401610108565b606435906108e06101f9565b9260a4359667ffffffffffffffff88116100d6576109056101d99836906004016100da565b979096611280565b346100d65760e07ffffffffffffffffffffffffffffffffffffffffffffffffffffffffffffffffc3601126100d65760043567ffffffffffffffff81116100d65761095c9036906004016100c8565b60243567ffffffffffffffff81116100d65761097c9036906004016100da565b9160443567ffffffffffffffff81116100d65761099d903690600401610108565b906064356109a96101f9565b9060a43567ffffffffffffffff81116100d6576109ca9036906004016100da565b94909360c4359867ffffffffffffffff8a116100d6576109f16101d99a36906004016100da565b9990986112e6565b346100d6575f7ffffffffffffffffffffffffffffffffffffffffffffffffffffffffffffffffc3601126100d657602060405173ffffffffffffffffffffffffffffffffffffffff7f0000000000000000000000000000000000000000000000000000000000000000168152f35b35610a71816101db565b90565b9035907fffffffffffffffffffffffffffffffffffffffffffffffffffffffffffffffe1813603018212156100d6570180359067ffffffffffffffff82116100d657602001918160051b360383136100d657565b919094929394610ad783611deb565b92610ae4878787876113f0565b953373ffffffffffffffffffffffffffffffffffffffff881603610b355784610b309161020699608085013591610b1a836101db565b89610b2860c0880188610a74565b9590946116e1565b61180a565b7ff6412b5a000000000000000000000000000000000000000000000000000000005f5260045ffd5b7f4e487b71000000000000000000000000000000000000000000000000000000005f52603260045260245ffd5b9015610b935790565b610b5d565b9190811015610b935760051b0190565b9035907fffffffffffffffffffffffffffffffffffffffffffffffffffffffffffffffe1813603018212156100d6570180359067ffffffffffffffff82116100d657602001918160061b360383136100d657565b7f4e487b71000000000000000000000000000000000000000000000000000000005f52604160045260245ffd5b90601f7fffffffffffffffffffffffffffffffffffffffffffffffffffffffffffffffe0910116810190811067ffffffffffffffff821117610c6a57604052565b610bfc565b601f82602094937fffffffffffffffffffffffffffffffffffffffffffffffffffffffffffffffe093818652868601375f8582860101520116010190565b949391949290928560408201604083525260608101935f965b808810610ce2575050610a719495506020818503910152610c6f565b90946040808281896001953701960197019690610cc6565b6040513d5f823e3d90fd5b99978a8a9c9587958a849d98819d9c9b979a969c610d2286611deb565b9a8b978587610d318d8d610b8a565b3591610d3d928c6113f0565b94610d48958a611a55565b85610d5560808501610a67565b9360c08101610d6391610a74565b95610d6f979195611b5a565b610d7891610b8a565b3591610d84948861180a565b83610d90575b50505050565b73ffffffffffffffffffffffffffffffffffffffff610db591169260a0810190610ba8565b8391933b156100d6575f8094610dfa604051978896879586947ffab3e26c00000000000000000000000000000000000000000000000000000000865260048601610cad565b03925af18015610e2b57610e11575b808080610d8a565b80610e1f5f610e2593610c29565b8061032b565b5f610e09565b610cfa565b9598919399909a979294969a610e4581611deb565b8781036111cd57508060a0610e5b920190610ba8565b98909a73ffffffffffffffffffffffffffffffffffffffff8716156111a557421161117d57610ea287610e95875f525f60205260405f2090565b905f5260205260405f2090565b91610ee1610ec8845473ffffffffffffffffffffffffffffffffffffffff9060201c1690565b73ffffffffffffffffffffffffffffffffffffffff1690565b61115557610fa7610fa2858f88908f8e8e610f9b8f610fc39c610fc79e63ffffffff42168063ffffffff8316105f1461114a57610f529163ffffffff9103165b829063ffffffff167fffffffffffffffffffffffffffffffffffffffffffffffffffffffff00000000825416179055565b907fffffffffffffffff0000000000000000000000000000000000000000ffffffff77ffffffffffffffffffffffffffffffffffffffff0000000083549260201b169116179055565b30906127fa565b6125bf565b73ffffffffffffffffffffffffffffffffffffffff87166126d7565b1590565b6111225767ffffffffffffffff165f5b8681106110bc5750506040805191825273ffffffffffffffffffffffffffffffffffffffff9290921660208201527f951f3c1dd7cdddba51828627f5b2ff72443fbec493f1c6bed7306d438e7745b29190a284611036575b5050505050565b73ffffffffffffffffffffffffffffffffffffffff1690813b156100d6575f8094611090604051978896879586947ffab3e26c00000000000000000000000000000000000000000000000000000000865260048601610cad565b03925af18015610e2b576110a8575b8080808061102f565b80610e1f5f6110b693610c29565b5f61109f565b8061111c6110cd6001938a8d611c3c565b886110fe6110f06110e084359460200190565b356110ea89611c4c565b906115bb565b670de0b6b3a7640000900490565b9173ffffffffffffffffffffffffffffffffffffffff339116612947565b01610fd7565b7f815e1d64000000000000000000000000000000000000000000000000000000005f5260045ffd5b5050610f525f610f21565b7f3367b554000000000000000000000000000000000000000000000000000000005f5260045ffd5b7f203d82d8000000000000000000000000000000000000000000000000000000005f5260045ffd5b7fcf7899a1000000000000000000000000000000000000000000000000000000005f5260045ffd5b877f0517adf9000000000000000000000000000000000000000000000000000000005f5260045260245260445ffd5b9796959190929361120c89611deb565b92611223828761121c848b610b8a565b35876113f0565b73ffffffffffffffffffffffffffffffffffffffff33911603610b355786611273858c611278958c9a86610d849d61126b61126060808701610a67565b9560c0810190610a74565b969095611b5a565b610b8a565b35928861180a565b9695949193929361129088611deb565b9161129d858786866113f0565b73ffffffffffffffffffffffffffffffffffffffff33911603610b35576112e0838a8997610d849988610b286112d560808601610a67565b9460c0810190610a74565b8861180a565b9896889a93869588839b96819b6113008f9c9b979c611deb565b98899661130f86888b8b6113f0565b9461131a9589611a55565b60808c013591611329836101db565b61133660c08e018e610a74565b946113429691946116e1565b61134c948861180a565b836113575750505050565b73ffffffffffffffffffffffffffffffffffffffff61137c91169260a0810190610ba8565b8391933b156100d6575f80946113c1604051978896879586947ffab3e26c00000000000000000000000000000000000000000000000000000000865260048601610cad565b03925af18015610e2b576113d757808080610d8a565b806113e35f8093610c29565b8003126100d6575f610e09565b919091825f525f60205260405f20905f5260205260405f2092835473ffffffffffffffffffffffffffffffffffffffff8160201c16928361144b575b5050505073ffffffffffffffffffffffffffffffffffffffff91501690565b8215610b935763ffffffff813561146181610484565b169260015b8181106115245750505063ffffffff1611156114f357506114ea826114c273ffffffffffffffffffffffffffffffffffffffff947fffffffffffffffffffffffffffffffffffffffffffffffffffffffff000000008154169055565b7fffffffffffffffff0000000000000000000000000000000000000000ffffffff8154169055565b5f80808061142c565b82547fffffffffffffffffffffffffffffffffffffffffffffffffffffffff0000000016835591610a7191506114c2565b63ffffffff611534828486610b98565b3561153e81610484565b16808610611550575b50600101611466565b94506001611547565b7f4e487b71000000000000000000000000000000000000000000000000000000005f52601160045260245ffd5b908160071b917f01ffffffffffffffffffffffffffffffffffffffffffffffffffffffffffffff8116036115b657565b611559565b818102929181159184041417156115b657565b60405190610206606083610c29565b6040519061020661012083610c29565b6040519061020661010083610c29565b67ffffffffffffffff8111610c6a57601f017fffffffffffffffffffffffffffffffffffffffffffffffffffffffffffffffe01660200190565b90611641826115fd565b61164e6040519182610c29565b8281527fffffffffffffffffffffffffffffffffffffffffffffffffffffffffffffffe061167c82946115fd565b0190602036910137565b9190811015610b935760051b810135907fffffffffffffffffffffffffffffffffffffffffffffffffffffffffffffff01813603018212156100d6570190565b35610a7181610484565b906020610a7192818152019061056a565b9493909291928682036117e2576116ff6116fa88611586565b611637565b965f5b818110611786575050505050505073ffffffffffffffffffffffffffffffffffffffff16803b156100d657611767915f9160405180809581947fae0dd770000000000000000000000000000000000000000000000000000000008352600483016116d0565b03915afa8015610e2b576117785750565b80610e1f5f61020693610c29565b80896080611797600194868c611686565b88886117c46040840135938d6117bd6117b88a843596602086013598610b98565b6116c6565b908c611fd7565b948660071b0192602084015260408301526060820152015201611702565b7f12d48609000000000000000000000000000000000000000000000000000000005f5260045ffd5b9294939260208201358201925060a08101918035019061182a8382610ba8565b905061183f61183882612188565b9483610ba8565b905f5b838110611a0e575050505091611941959493918363ffffffff611866602096610a67565b91868101356118d761188361187d606085016116c6565b93612a1a565b946118b661188f6123a6565b976118a861189b6115dd565b9b36908e813591016123fb565b8b5236908c813591016123fb565b898b015273ffffffffffffffffffffffffffffffffffffffff166040890152565b606087015216608085015260a084015260c083015260e082015273ffffffffffffffffffffffffffffffffffffffff8416610100820152604051809581927f4e55a54800000000000000000000000000000000000000000000000000000000835260048301612494565b03815f73ffffffffffffffffffffffffffffffffffffffff7f0000000000000000000000000000000000000000000000000000000000000000165af1928315610e2b577f16a681bc1a5ec95f106eb0fb117a24a434519482ead74286b0627b5265e40b8b936119b7915f916119df575b506125b8565b6040805191825273ffffffffffffffffffffffffffffffffffffffff929092166020820152a2565b611a01915060203d602011611a07575b6119f98183610c29565b810190612431565b5f6119b1565b503d6119ef565b80611a1c6001928585611c3c565b80359060200135611a2b6115ce565b9182528060208301526040820152611a43828a612218565b52611a4e8189612218565b5001611842565b93611b549694611b4e929373ffffffffffffffffffffffffffffffffffffffff611b0e610fc3999760405160208101907f416c6c6f774f70656e2862797465733332206f7264657249642c61646472657382527f73206f726967696e536574746c65722c616464726573732064657374696e617460408201527f696f6e2c62797465732063616c6c2900000000000000000000000000000000006060820152604f8152611b03606f82610c29565b5190209536916123fb565b60208151910120916040519360208501958652604085015230606085015216608083015260a082015260a08152611b4660c082610c29565b5190206125bf565b906126d7565b61112257565b959493909291928785036117e257611b746116fa89611586565b975f5b89828210611bdf5750505050505050505073ffffffffffffffffffffffffffffffffffffffff16803b156100d657611767915f9160405180809581947fae0dd770000000000000000000000000000000000000000000000000000000008352600483016116d0565b906001916080898989611c1e611bf78f8a8991611686565b8b6117bd6117b88a604085013598611c178287359960208901359b610b98565b3594610b98565b948660071b0192602084015260408301526060820152015201611b77565b9190811015610b935760061b0190565b670de0b6b3a76400000390670de0b6b3a764000082116115b657565b6040908151611c778382610c29565b600f81527f436174616c797374536574746c65720000000000000000000000000000000000602082015291611cae81519182610c29565b600881527f436f6d7061637431000000000000000000000000000000000000000000000000602082015290565b90357fffffffffffffffffffffffffffffffffffffffffffffffffffffffffffffffe1823603018112156100d657016020813591019167ffffffffffffffff82116100d65781360383136100d657565b805191908290602001825e015f815290565b9490937fffffffffffffffffffffffffffffffffffffffff00000000000000000000000060809794817fffffffff000000000000000000000000000000000000000000000000000000009581989e9d9b9c9e8a5260601b16602089015260601b166034870152604886015260e01b16606884015260601b16606c82015201915f945b808610611dd3575050610a71929350611d2b565b90926040808281876001953701940195019490611dbf565b803590611df7826101db565b6020810135606082013591611e0b83610484565b611e37608082013591611e1d836101db565b611e2a60a0820182610ba8565b92909160c0810190610a74565b604094919451948160408701602080890152526060860160608360051b88010192825f907fffffffffffffffffffffffffffffffffffffffffffffffffffffffffffffff0181360301935b838310611f105750505050505091611ede9391611ecb86611f0a989795037fffffffffffffffffffffffffffffffffffffffffffffffffffffffffffffffe08101865285610c29565b604051978896602088019a30468d611d3d565b037fffffffffffffffffffffffffffffffffffffffffffffffffffffffffffffffe08101835282610c29565b51902090565b9091929394957fffffffffffffffffffffffffffffffffffffffffffffffffffffffffffffffa08b82030182528635868112156100d6576020611fc7600193868394019081358152838201358482015260408201356040820152606082013560608201526080820135608082015260a082013560a0820152611fb9611fae611f9b60c0850185611cdb565b61010060c0860152610100850191610c6f565b9260e0810190611cdb565b9160e0818503910152610c6f565b9801920193019190949392611e82565b9092606081013560808201359160a08101359261201f61200d61201761200060c08601866129ae565b92909560e08101906129ae565b95909236916123fb565b9336916123fb565b9361ffff8351116121485761ffff8551116121205782519185519460405198899860208a019b8c5260408a015260e01b7fffffffff000000000000000000000000000000000000000000000000000000001660608901526064880152608487015260a486015260f01b7fffff0000000000000000000000000000000000000000000000000000000000001660c485015260c684016120bc91611d2b565b9060f01b7fffff0000000000000000000000000000000000000000000000000000000000001681526002016120f091611d2b565b037fffffffffffffffffffffffffffffffffffffffffffffffffffffffffffffffe081018252611f0a9082610c29565b7fda72146f000000000000000000000000000000000000000000000000000000005f5260045ffd5b7f940c9fdb000000000000000000000000000000000000000000000000000000005f5260045ffd5b67ffffffffffffffff8111610c6a5760051b60200190565b9061219282612170565b61219f6040519182610c29565b8281527fffffffffffffffffffffffffffffffffffffffffffffffffffffffffffffffe06121cd8294612170565b015f5b8181106121dc57505050565b60405190606082019180831067ffffffffffffffff841117610c6a576020926040525f81525f838201525f6040820152828286010152016121d0565b8051821015610b935760209160051b010190565b6040517f436174616c7973745769746e6573732875696e7433322066696c6c446561646c60208201527f696e652c61646472657373206c6f63616c4f7261636c652c4f7574707574446560408201527f736372697074696f6e5b5d206f75747075747329000000000000000000000000606082015260548152610a71607482610c29565b6040517f4f75747075744465736372697074696f6e28627974657333322072656d6f746560208201527f4f7261636c652c627974657333322072656d6f746546696c6c65722c75696e7460408201527f32353620636861696e49642c6279746573333220746f6b656e2c75696e74323560608201527f3620616d6f756e742c6279746573333220726563697069656e742c627974657360808201527f2072656d6f746543616c6c2c62797465732066756c66696c6c6d656e74436f6e60a08201527f746578742900000000000000000000000000000000000000000000000000000060c082015260a58152610a7160c582610c29565b6123f5610a716123b461222c565b611ede6123bf6122b0565b6040519485937f436174616c7973745769746e657373207769746e65737329000000000000000060208601526038850190611d2b565b90611d2b565b929192612407826115fd565b916124156040519384610c29565b8294818452818301116100d6578281602093845f960137010152565b908160209103126100d6575180151581036100d65790565b90602080835192838152019201905f5b8181106124665750505090565b9091926020606060019260408751805183528481015185840152015160408201520194019101919091612459565b610a71906020815261012061010061259a6125676124f56124c1885186602089015261014088019061056a565b60208901517fffffffffffffffffffffffffffffffffffffffffffffffffffffffffffffffe088830301604089015261056a565b604088015173ffffffffffffffffffffffffffffffffffffffff16606087015260608801516080870152608088015160a087015260a088015160c087015260c08801517fffffffffffffffffffffffffffffffffffffffffffffffffffffffffffffffe08783030160e088015261056a565b60e08701517fffffffffffffffffffffffffffffffffffffffffffffffffffffffffffffffe08683030184870152612449565b94015173ffffffffffffffffffffffffffffffffffffffff16910152565b156100d657565b7f0000000000000000000000000000000000000000000000000000000000000000467f000000000000000000000000000000000000000000000000000000000000000014307f000000000000000000000000000000000000000000000000000000000000000014161561264a575b6719010000000000005f52601a52603a526042601820905f603a52565b506126d260a06040517f8b73c3c69bb8fe3d512ecc4cf759cc79239f7b179b0ffacaa9a75d522b39400f81527f000000000000000000000000000000000000000000000000000000000000000060208201527f000000000000000000000000000000000000000000000000000000000000000060408201524660608201523060808201522090565b61262d565b909193925f9473ffffffffffffffffffffffffffffffffffffffff8316156127f15760405195600487016024880195604489019160648a0193873b15612760575094602096948a948260649581958c9d9e9a7f1626ba7e00000000000000000000000000000000000000000000000000000000809e9c525260408a52523701915afa9151141690565b9997505093915050806040146127ad5760411461277d5750505050565b60408092939496508101355f1a60205281375b5f526020600160805f825afa511860601b3d11915f606052604052565b507f7fffffffffffffffffffffffffffffffffffffffffffffffffffffffffffffff9192939550602081013590601b8260ff1c016020523560405216606052612790565b505f9450505050565b929567ffffffffffffffff63ffffffff9296611f0a969473ffffffffffffffffffffffffffffffffffffffff6128e260209b6040518d8101907f4f7264657250757263686173652862797465733332206f7264657249642c616482527f6472657373206f726967696e536574746c65722c61646472657373206465737460408201527f696e6174696f6e2c62797465732063616c6c2c75696e74363420646973636f7560608201527f6e742c75696e7433322074696d65546f427579290000000000000000000000006080820152607481526128d7609482610c29565b5190209836916123fb565b8b815191012091816040519b8c9a8e8c019e8f60e081019c815201521660408d01521660608b015260808a01521660a08801521660c0860152037fffffffffffffffffffffffffffffffffffffffffffffffffffffffffffffffe08101835282610c29565b916040519360605260405260601b602c526f23b872dd000000000000000000000000600c5260205f6064601c82855af1908160015f51141615612990575b50505f606052604052565b3b153d1710156129a1575f80612985565b637939f4245f526004601cfd5b9035907fffffffffffffffffffffffffffffffffffffffffffffffffffffffffffffffe1813603018212156100d6570180359067ffffffffffffffff82116100d6576020019181360383136100d657565b9080601f830112156100d657816020610a71933591016123fb565b612a2261222c565b611ede612a44612a306122b0565b6040519283916123f5602084018097611d2b565b519020906060810135612a5681610484565b612a72608083013592612a68846101db565b60c0810190610a74565b612a7b81612170565b91612a896040519384610c29565b818352602083019160051b8101903682116100d65780925b828410612b01575050505090611ede612abc611f0a93612bba565b6040519485936020850197889094939273ffffffffffffffffffffffffffffffffffffffff9063ffffffff606094608085019885521660208401521660408201520152565b833567ffffffffffffffff81116100d6578201610100813603126100d657612b276115ed565b91813583526020820135602084015260408201356040840152606082013560608401526080820135608084015260a082013560a084015260c082013567ffffffffffffffff81116100d657612b7f90369084016129ff565b60c084015260e08201359267ffffffffffffffff84116100d657612baa6020949385943691016129ff565b60e0820152815201930192612aa1565b90612bc8825160051b611637565b5f5b8351811015612c825780612be060019286612218565b51612be96122b0565b60208151910120908051906020810151906040810151606082015160808301519060a08401519260e060c08601516020815191012095015160208151910120956040519760208901998a5260408901526060880152608087015260a086015260c085015260e08401526101008301526101208201526101208152612c6f61014082610c29565b51902060208260051b8501015201612bca565b508051602090910120915056fea2646970667358221220660493523ec195dd92b494679373e1d82302696d134c2db5e54133b4b2e288b064736f6c634300081c0033","linkReferences":{}},"methodIdentifiers":{"COMPACT()":"c2f749b9","DOMAIN_SEPARATOR()":"3644e515","eip712Domain()":"84b0196e","finaliseFor((address,uint256,uint256,uint32,address,uint256[2][],(bytes32,bytes32,uint256,bytes32,uint256,bytes32,bytes,bytes)[]),bytes,uint32[],bytes32,address,bytes,bytes)":"bee395b7","finaliseFor((address,uint256,uint256,uint32,address,uint256[2][],(bytes32,bytes32,uint256,bytes32,uint256,bytes32,bytes,bytes)[]),bytes,uint32[],bytes32[],address,bytes,bytes)":"2bfec373","finaliseSelf((address,uint256,uint256,uint32,address,uint256[2][],(bytes32,bytes32,uint256,bytes32,uint256,bytes32,bytes,bytes)[]),bytes,uint32[],bytes32)":"0059a946","finaliseTo((address,uint256,uint256,uint32,address,uint256[2][],(bytes32,bytes32,uint256,bytes32,uint256,bytes32,bytes,bytes)[]),bytes,uint32[],bytes32,address,bytes)":"b2e69166","finaliseTo((address,uint256,uint256,uint32,address,uint256[2][],(bytes32,bytes32,uint256,bytes32,uint256,bytes32,bytes,bytes)[]),bytes,uint32[],bytes32[],address,bytes)":"adf76dff","orderIdentifier((address,uint256,uint256,uint32,address,uint256[2][],(bytes32,bytes32,uint256,bytes32,uint256,bytes32,bytes,bytes)[]))":"9632bc81","purchaseOrder(bytes32,(address,uint256,uint256,uint32,address,uint256[2][],(bytes32,bytes32,uint256,bytes32,uint256,bytes32,bytes,bytes)[]),bytes32,address,uint256,address,bytes,uint64,uint32,bytes)":"61abbc11","purchasedOrders(bytes32,bytes32)":"9efa6120"},"id":124}