{"abi":[{"type":"constructor","inputs":[{"name":"_owner","type":"address","internalType":"address"},{"name":"_wormhole","type":"address","internalType":"address"}],"stateMutability":"payable"},{"type":"function","name":"WORMHOLE","inputs":[],"outputs":[{"name":"","type":"address","internalType":"contract IWormhole"}],"stateMutability":"view"},{"type":"function","name":"cancelOwnershipHandover","inputs":[],"outputs":[],"stateMutability":"payable"},{"type":"function","name":"chainId","inputs":[],"outputs":[{"name":"","type":"uint16","internalType":"uint16"}],"stateMutability":"view"},{"type":"function","name":"completeOwnershipHandover","inputs":[{"name":"pendingOwner","type":"address","internalType":"address"}],"outputs":[],"stateMutability":"payable"},{"type":"function","name":"efficientRequireProven","inputs":[{"name":"proofSeries","type":"bytes","internalType":"bytes"}],"outputs":[],"stateMutability":"view"},{"type":"function","name":"evmChainId","inputs":[],"outputs":[{"name":"","type":"uint256","internalType":"uint256"}],"stateMutability":"view"},{"type":"function","name":"getBlockChainIdtoChainIdentifier","inputs":[{"name":"chainId","type":"uint256","internalType":"uint256"}],"outputs":[{"name":"messagingProtocolChainIdentifier","type":"uint16","internalType":"uint16"}],"stateMutability":"view"},{"type":"function","name":"getChainIdentifierToBlockChainId","inputs":[{"name":"messagingProtocolChainIdentifier","type":"uint16","internalType":"uint16"}],"outputs":[{"name":"chainId","type":"uint256","internalType":"uint256"}],"stateMutability":"view"},{"type":"function","name":"getCurrentGuardianSetIndex","inputs":[],"outputs":[{"name":"","type":"uint32","internalType":"uint32"}],"stateMutability":"view"},{"type":"function","name":"getGuardianSet","inputs":[{"name":"index","type":"uint32","internalType":"uint32"}],"outputs":[{"name":"","type":"tuple","internalType":"struct Structs.GuardianSet","components":[{"name":"keys","type":"address[]","internalType":"address[]"},{"name":"expirationTime","type":"uint32","internalType":"uint32"}]}],"stateMutability":"view"},{"type":"function","name":"getGuardianSetExpiry","inputs":[],"outputs":[{"name":"","type":"uint32","internalType":"uint32"}],"stateMutability":"view"},{"type":"function","name":"governanceActionIsConsumed","inputs":[{"name":"hash","type":"bytes32","internalType":"bytes32"}],"outputs":[{"name":"","type":"bool","internalType":"bool"}],"stateMutability":"view"},{"type":"function","name":"governanceChainId","inputs":[],"outputs":[{"name":"","type":"uint16","internalType":"uint16"}],"stateMutability":"view"},{"type":"function","name":"governanceContract","inputs":[],"outputs":[{"name":"","type":"bytes32","internalType":"bytes32"}],"stateMutability":"view"},{"type":"function","name":"isFork","inputs":[],"outputs":[{"name":"","type":"bool","internalType":"bool"}],"stateMutability":"view"},{"type":"function","name":"isInitialized","inputs":[{"name":"impl","type":"address","internalType":"address"}],"outputs":[{"name":"","type":"bool","internalType":"bool"}],"stateMutability":"view"},{"type":"function","name":"isProven","inputs":[{"name":"remoteChainId","type":"uint256","internalType":"uint256"},{"name":"remoteOracle","type":"bytes32","internalType":"bytes32"},{"name":"application","type":"bytes32","internalType":"bytes32"},{"name":"dataHash","type":"bytes32","internalType":"bytes32"}],"outputs":[{"name":"","type":"bool","internalType":"bool"}],"stateMutability":"view"},{"type":"function","name":"messageFee","inputs":[],"outputs":[{"name":"","type":"uint256","internalType":"uint256"}],"stateMutability":"view"},{"type":"function","name":"nextSequence","inputs":[{"name":"emitter","type":"address","internalType":"address"}],"outputs":[{"name":"","type":"uint64","internalType":"uint64"}],"stateMutability":"view"},{"type":"function","name":"owner","inputs":[],"outputs":[{"name":"result","type":"address","internalType":"address"}],"stateMutability":"view"},{"type":"function","name":"ownershipHandoverExpiresAt","inputs":[{"name":"pendingOwner","type":"address","internalType":"address"}],"outputs":[{"name":"result","type":"uint256","internalType":"uint256"}],"stateMutability":"view"},{"type":"function","name":"parseAndVerifyVM","inputs":[{"name":"encodedVM","type":"bytes","internalType":"bytes"}],"outputs":[{"name":"emitterChainId","type":"uint16","internalType":"uint16"},{"name":"emitterAddress","type":"bytes32","internalType":"bytes32"},{"name":"payload","type":"bytes","internalType":"bytes"}],"stateMutability":"view"},{"type":"function","name":"parseVM","inputs":[{"name":"encodedVM","type":"bytes","internalType":"bytes"}],"outputs":[{"name":"emitterChainId","type":"uint16","internalType":"uint16"},{"name":"emitterAddress","type":"bytes32","internalType":"bytes32"},{"name":"guardianSetIndex","type":"uint32","internalType":"uint32"},{"name":"signatures","type":"bytes","internalType":"bytes"},{"name":"bodyHash","type":"bytes32","internalType":"bytes32"},{"name":"payload","type":"bytes","internalType":"bytes"}],"stateMutability":"view"},{"type":"function","name":"quorum","inputs":[{"name":"numGuardians","type":"uint256","internalType":"uint256"}],"outputs":[{"name":"numSignaturesRequiredForQuorum","type":"uint256","internalType":"uint256"}],"stateMutability":"pure"},{"type":"function","name":"receiveMessage","inputs":[{"name":"rawMessage","type":"bytes","internalType":"bytes"}],"outputs":[],"stateMutability":"nonpayable"},{"type":"function","name":"renounceOwnership","inputs":[],"outputs":[],"stateMutability":"payable"},{"type":"function","name":"requestOwnershipHandover","inputs":[],"outputs":[],"stateMutability":"payable"},{"type":"function","name":"setChainMap","inputs":[{"name":"messagingProtocolChainIdentifier","type":"uint16","internalType":"uint16"},{"name":"chainId","type":"uint256","internalType":"uint256"}],"outputs":[],"stateMutability":"nonpayable"},{"type":"function","name":"submit","inputs":[{"name":"proofSource","type":"address","internalType":"address"},{"name":"payloads","type":"bytes[]","internalType":"bytes[]"}],"outputs":[{"name":"refund","type":"uint256","internalType":"uint256"}],"stateMutability":"payable"},{"type":"function","name":"transferOwnership","inputs":[{"name":"newOwner","type":"address","internalType":"address"}],"outputs":[],"stateMutability":"payable"},{"type":"function","name":"verifySignatures","inputs":[{"name":"hash","type":"bytes32","internalType":"bytes32"},{"name":"signatures","type":"bytes","internalType":"bytes"},{"name":"guardianSet","type":"tuple","internalType":"struct Structs.GuardianSet","components":[{"name":"keys","type":"address[]","internalType":"address[]"},{"name":"expirationTime","type":"uint32","internalType":"uint32"}]}],"outputs":[],"stateMutability":"pure"},{"type":"event","name":"MapMessagingProtocolIdentifierToChainId","inputs":[{"name":"messagingProtocolIdentifier","type":"uint16","indexed":false,"internalType":"uint16"},{"name":"chainId","type":"uint256","indexed":false,"internalType":"uint256"}],"anonymous":false},{"type":"event","name":"OutputProven","inputs":[{"name":"chainid","type":"uint256","indexed":false,"internalType":"uint256"},{"name":"remoteIdentifier","type":"bytes32","indexed":false,"internalType":"bytes32"},{"name":"application","type":"bytes32","indexed":false,"internalType":"bytes32"},{"name":"payloadHash","type":"bytes32","indexed":false,"internalType":"bytes32"}],"anonymous":false},{"type":"event","name":"OwnershipHandoverCanceled","inputs":[{"name":"pendingOwner","type":"address","indexed":true,"internalType":"address"}],"anonymous":false},{"type":"event","name":"OwnershipHandoverRequested","inputs":[{"name":"pendingOwner","type":"address","indexed":true,"internalType":"address"}],"anonymous":false},{"type":"event","name":"OwnershipTransferred","inputs":[{"name":"oldOwner","type":"address","indexed":true,"internalType":"address"},{"name":"newOwner","type":"address","indexed":true,"internalType":"address"}],"anonymous":false},{"type":"error","name":"AlreadyInitialized","inputs":[]},{"type":"error","name":"AlreadySet","inputs":[]},{"type":"error","name":"GuardianIndexOutOfBounds","inputs":[]},{"type":"error","name":"GuardianSetExpired","inputs":[]},{"type":"error","name":"InvalidGuardianSet","inputs":[]},{"type":"error","name":"InvalidSignatory","inputs":[]},{"type":"error","name":"NewOwnerIsZeroAddress","inputs":[]},{"type":"error","name":"NoHandoverRequest","inputs":[]},{"type":"error","name":"NoQuorum","inputs":[]},{"type":"error","name":"NotAllPayloadsValid","inputs":[]},{"type":"error","name":"NotDivisible","inputs":[{"name":"value","type":"uint256","internalType":"uint256"},{"name":"divisor","type":"uint256","internalType":"uint256"}]},{"type":"error","name":"NotProven","inputs":[{"name":"remoteChainId","type":"uint256","internalType":"uint256"},{"name":"remoteOracle","type":"bytes32","internalType":"bytes32"},{"name":"application","type":"bytes32","internalType":"bytes32"},{"name":"dataHash","type":"bytes32","internalType":"bytes32"}]},{"type":"error","name":"SignatureIndicesNotAscending","inputs":[]},{"type":"error","name":"TooLargePayload","inputs":[{"name":"size","type":"uint256","internalType":"uint256"}]},{"type":"error","name":"TooManyGuardians","inputs":[]},{"type":"error","name":"TooManyPayloads","inputs":[{"name":"size","type":"uint256","internalType":"uint256"}]},{"type":"error","name":"Unauthorized","inputs":[]},{"type":"error","name":"VMSignatureInvalid","inputs":[]},{"type":"error","name":"VMVersionIncompatible","inputs":[]},{"type":"error","name":"WormholeStateAddressZero","inputs":[]},{"type":"error","name":"ZeroValue","inputs":[]}],"bytecode":{"object":"0x60c0601f61265c38819003918201601f19168301916001600160401b03831184841017610126578084926040948552833981010312610122576100418161013a565b906001600160a01b03906100579060200161013a565b169081156101135760808290526001600160a01b0316638b78c6d8198190555f7f8be0079c531659141344cd1fd0a4f28419497f9722a3daafe3b4186f6b6457e08180a360a05260405161250d908161014f8239608051818181610236015281816106f8015281816107e30152818161092f01528181610a5c01528181610d3e0152818161143001528181611561015281816119d301528181611b2a01528181611cf90152612303015260a05181818161107301526119350152f35b6323205fe760e01b5f5260045ffd5b5f80fd5b634e487b7160e01b5f52604160045260245ffd5b51906001600160a01b03821682036101225756fe6080806040526004361015610012575f80fd5b5f3560e01c9081631a90a21914611abc575080631cfe795114611a765780632569296214611a0f5780632c3c02a41461195957806335e78cfe146118eb5780633ff04aff1461187b5780634355866714611728578063448c28f5146116145780634a656171146115c35780634cf842b5146114cb57806354d1f13d1461146957806364d42b17146113bf578063715018a61461132257806387d64b9214610dec5780638da5cb5b14610d7c5780639a8a059214610ccd578063a9e1189314610c27578063ae0dd77014610ac9578063b172b222146109eb578063c0fd8bde1461096b578063d60b347f14610899578063db9526b91461084d578063e039f22414610772578063eb8d3f1214610687578063f04e283e1461061c578063f2fde38b146105c1578063f8ce560a1461057d578063f951975a146104c5578063f953cec7146102ad578063fbe3c2cd146101c55763fee81cf414610171575f80fd5b346101c15760207ffffffffffffffffffffffffffffffffffffffffffffffffffffffffffffffffc3601126101c1576101a8611c33565b63389a75e1600c525f52602080600c2054604051908152f35b5f80fd5b346101c1575f7ffffffffffffffffffffffffffffffffffffffffffffffffffffffffffffffffc3601126101c1576040517ffbe3c2cd00000000000000000000000000000000000000000000000000000000815260208160048173ffffffffffffffffffffffffffffffffffffffff7f0000000000000000000000000000000000000000000000000000000000000000165afa80156102a2576020915f91610275575b5061ffff60405191168152f35b6102959150823d841161029b575b61028d8183611bda565b810190611f74565b82610268565b503d610283565b6040513d5f823e3d90fd5b346101c15760207ffffffffffffffffffffffffffffffffffffffffffffffffffffffffffffffffc3601126101c15760043567ffffffffffffffff81116101c1576102ff610305913690600401611b63565b90612177565b92813591846022116101c157602081013560f01c9061032382611c1b565b956103316040519788611bda565b8287527fffffffffffffffffffffffffffffffffffffffffffffffffffffffffffffffe061035e84611c1b565b013660208901376022905f5b8481106104745788888861ffff89165f52600160205260405f205491821561044c578351925f5b84811061039a57005b807f0181a12666b7d0fe18268f2539395fe14c843ad334ea7210434eae4881d9de6b6104436103cb6001948a611d7b565b51855f525f60205260405f20875f5260205260405f20885f5260205260405f20815f5260205260405f20857fffffffffffffffffffffffffffffffffffffffffffffffffffffffffffffff00825416179055604051918291898989859094939260609260808301968352602083015260408201520152565b0390a101610391565b7f7c946ed7000000000000000000000000000000000000000000000000000000005f5260045ffd5b6001906104ad6104a660028087019661049861049289838a8d611f8e565b9061200a565b60f01c010180968689611f8e565b3691611fa6565b602081519101206104be828c611d7b565b520161036a565b346101c15760207ffffffffffffffffffffffffffffffffffffffffffffffffffffffffffffffffc3601126101c15760043563ffffffff811681036101c15761050d906122a0565b60405160208152606081018251906040602084015281518091526020608084019201905f5b8181106105515750505063ffffffff6020839401511660408301520390f35b825173ffffffffffffffffffffffffffffffffffffffff16845260209384019390920191600101610532565b346101c15760207ffffffffffffffffffffffffffffffffffffffffffffffffffffffffffffffffc3601126101c15760206105b9600435612262565b604051908152f35b60207ffffffffffffffffffffffffffffffffffffffffffffffffffffffffffffffffc3601126101c1576105f3611c33565b6105fb61241f565b8060601b1561060f5761060d90612456565b005b637448fbae5f526004601cfd5b60207ffffffffffffffffffffffffffffffffffffffffffffffffffffffffffffffffc3601126101c15761064e611c33565b61065661241f565b63389a75e1600c52805f526020600c20908154421161067a575f61060d9255612456565b636f5e88185f526004601cfd5b346101c1575f7ffffffffffffffffffffffffffffffffffffffffffffffffffffffffffffffffc3601126101c1576040517feb8d3f1200000000000000000000000000000000000000000000000000000000815260208160048173ffffffffffffffffffffffffffffffffffffffff7f0000000000000000000000000000000000000000000000000000000000000000165afa80156102a2575f90610738575b60209063ffffffff60405191168152f35b506020813d60201161076a575b8161075260209383611bda565b810103126101c157610765602091611ca5565b610727565b3d9150610745565b346101c1575f7ffffffffffffffffffffffffffffffffffffffffffffffffffffffffffffffffc3601126101c1576040517fe039f22400000000000000000000000000000000000000000000000000000000815260208160048173ffffffffffffffffffffffffffffffffffffffff7f0000000000000000000000000000000000000000000000000000000000000000165afa80156102a2576020915f91610820575b506040519015158152f35b6108409150823d8411610846575b6108388183611bda565b810190611d63565b82610815565b503d61082e565b346101c15760207ffffffffffffffffffffffffffffffffffffffffffffffffffffffffffffffffc3601126101c1576004355f526002602052602061ffff60405f205416604051908152f35b346101c15760207ffffffffffffffffffffffffffffffffffffffffffffffffffffffffffffffffc3601126101c1576108d0611c33565b73ffffffffffffffffffffffffffffffffffffffff604051917fd60b347f00000000000000000000000000000000000000000000000000000000835216600482015260208160248173ffffffffffffffffffffffffffffffffffffffff7f0000000000000000000000000000000000000000000000000000000000000000165afa80156102a2576020915f9161082057506040519015158152f35b346101c15760207ffffffffffffffffffffffffffffffffffffffffffffffffffffffffffffffffc3601126101c15760043567ffffffffffffffff81116101c1576109e76109c36102ff61ffff933690600401611b63565b90916040949394519586951685526020850152606060408501526060840191611c67565b0390f35b346101c1575f7ffffffffffffffffffffffffffffffffffffffffffffffffffffffffffffffffc3601126101c1576040517fb172b22200000000000000000000000000000000000000000000000000000000815260208160048173ffffffffffffffffffffffffffffffffffffffff7f0000000000000000000000000000000000000000000000000000000000000000165afa80156102a2575f90610a96575b602090604051908152f35b506020813d602011610ac1575b81610ab060209383611bda565b810103126101c15760209051610a8b565b3d9150610aa3565b346101c15760207ffffffffffffffffffffffffffffffffffffffffffffffffffffffffffffffffc3601126101c15760043567ffffffffffffffff81116101c157610b18903690600401611b63565b90817fffffffffffffffffffffffffffffffffffffffffffffffffffffffffffffff80811603610bf6575f915b808310610b4e57005b828201928335602085013591608060606040880135970135910195825f525f60205260405f20845f5260205260405f20815f5260205260405f20825f5260205260ff60405f20541615610ba45750505050610b45565b90610bf2916040519485947f19a15a86000000000000000000000000000000000000000000000000000000008652600486019094939260609260808301968352602083015260408201520152565b0390fd5b507fa3ecc749000000000000000000000000000000000000000000000000000000005f52600452608060245260445ffd5b346101c15760207ffffffffffffffffffffffffffffffffffffffffffffffffffffffffffffffffc3601126101c15760043567ffffffffffffffff81116101c157610cba6109e763ffffffff610c8d610c8761ffff953690600401611b63565b90612070565b96999490956040989298519b8c9b168b5260208b015216604089015260c0606089015260c0880191611c67565b92608086015284830360a0860152611c67565b346101c1575f7ffffffffffffffffffffffffffffffffffffffffffffffffffffffffffffffffc3601126101c1576040517f9a8a059200000000000000000000000000000000000000000000000000000000815260208160048173ffffffffffffffffffffffffffffffffffffffff7f0000000000000000000000000000000000000000000000000000000000000000165afa80156102a2576020915f91610275575061ffff60405191168152f35b346101c1575f7ffffffffffffffffffffffffffffffffffffffffffffffffffffffffffffffffc3601126101c15760207fffffffffffffffffffffffffffffffffffffffffffffffffffffffff748739275473ffffffffffffffffffffffffffffffffffffffff60405191168152f35b60407ffffffffffffffffffffffffffffffffffffffffffffffffffffffffffffffffc3601126101c157610e1e611c33565b6024359067ffffffffffffffff82116101c157366023830112156101c15781600401359067ffffffffffffffff82116101c1578160051b9036602483860101116101c15773ffffffffffffffffffffffffffffffffffffffff16926040517fdec85d8e0000000000000000000000000000000000000000000000000000000081528360248201602060048401525280604480820194820101602484015f957fffffffffffffffffffffffffffffffffffffffffffffffffffffffffffffffbd86360301965b8881106112a85750505090806020920381885afa9081156102a2575f91611289575b5015611261575f9361ffff8411611235576040519060208201527fffff0000000000000000000000000000000000000000000000000000000000008460f01b16604082015260228152610f59604282611bda565b935f945b8486101561105b5760248660051b84010135848112156101c157830160248101359067ffffffffffffffff82116101c15760440181360381136101c15761ffff821161102f5760026001936020846110279482966040519785899651918291018688015e8501917fffff0000000000000000000000000000000000000000000000000000000000008260f01b1685840152602283013701015f8382015203017fffffffffffffffffffffffffffffffffffffffffffffffffffffffffffffffe08101835282611bda565b950194610f5d565b507fd7297714000000000000000000000000000000000000000000000000000000005f5260045260245ffd5b9073ffffffffffffffffffffffffffffffffffffffff7f000000000000000000000000000000000000000000000000000000000000000016604051927f1a90a219000000000000000000000000000000000000000000000000000000008452602084600481855afa9384156102a2575f94611200575b50601f7fffffffffffffffffffffffffffffffffffffffffffffffffffffffffffffffe09260208660848295604051978896879586937fb19a437e0000000000000000000000000000000000000000000000000000000085525f6004860152606060248601528051918291826064880152018686015e5f858286010152600f6044850152011681010301925af180156102a2576111d3575b5081341161117c57602090604051908152f35b5034033481116111a6575f38818084335af1156111995780610a8b565b63b12d13eb5f526004601cfd5b7f4e487b71000000000000000000000000000000000000000000000000000000005f52601160045260245ffd5b6111f49060203d6020116111f9575b6111ec8183611bda565b810190611f54565b611169565b503d6111e2565b9093506020813d60201161122d575b8161121c60209383611bda565b810103126101c1575192601f6110d1565b3d915061120f565b837f75b8cf75000000000000000000000000000000000000000000000000000000005f5260045260245ffd5b7f0ef392ae000000000000000000000000000000000000000000000000000000005f5260045ffd5b6112a2915060203d602011610846576108388183611bda565b85610f05565b91937fffffffffffffffffffffffffffffffffffffffffffffffffffffffffffffffbc90849294030183528335878112156101c1578601906044602483013592019167ffffffffffffffff81116101c15780360383136101c1576113126020928392600195611c67565b9501930191019084939291610ee3565b5f7ffffffffffffffffffffffffffffffffffffffffffffffffffffffffffffffffc3601126101c15761135361241f565b5f7fffffffffffffffffffffffffffffffffffffffffffffffffffffffff74873927547f8be0079c531659141344cd1fd0a4f28419497f9722a3daafe3b4186f6b6457e08280a35f7fffffffffffffffffffffffffffffffffffffffffffffffffffffffff7487392755005b346101c1575f7ffffffffffffffffffffffffffffffffffffffffffffffffffffffffffffffffc3601126101c1576040517f64d42b1700000000000000000000000000000000000000000000000000000000815260208160048173ffffffffffffffffffffffffffffffffffffffff7f0000000000000000000000000000000000000000000000000000000000000000165afa80156102a2575f90610a9657602090604051908152f35b5f7ffffffffffffffffffffffffffffffffffffffffffffffffffffffffffffffffc3601126101c15763389a75e1600c52335f525f6020600c2055337ffa7b8eab7da67f412cc9575ed43464468f9bfbae89d1675917346ca6d8fe3c925f80a2005b346101c15760207ffffffffffffffffffffffffffffffffffffffffffffffffffffffffffffffffc3601126101c157611502611c33565b73ffffffffffffffffffffffffffffffffffffffff604051917f4cf842b500000000000000000000000000000000000000000000000000000000835216600482015260208160248173ffffffffffffffffffffffffffffffffffffffff7f0000000000000000000000000000000000000000000000000000000000000000165afa80156102a2576020915f916115a6575b5067ffffffffffffffff60405191168152f35b6115bd9150823d84116111f9576111ec8183611bda565b82611593565b346101c15760207ffffffffffffffffffffffffffffffffffffffffffffffffffffffffffffffffc3601126101c15761ffff6115fd611c56565b165f526001602052602060405f2054604051908152f35b346101c15760407ffffffffffffffffffffffffffffffffffffffffffffffffffffffffffffffffc3601126101c15761164b611c56565b61ffff6024359161165a61241f565b1690811561044c57801561044c57815f52600160205260405f205461170057805f52600260205261ffff60405f20541661170057816040917f9a7b1ab97700769daa990b527de008d2f86c389535b1d74e419c0e12a7a3437a935f52600160205280835f2055805f526002602052825f20827fffffffffffffffffffffffffffffffffffffffffffffffffffffffffffff000082541617905582519182526020820152a1005b7fa741a045000000000000000000000000000000000000000000000000000000005f5260045ffd5b346101c15760607ffffffffffffffffffffffffffffffffffffffffffffffffffffffffffffffffc3601126101c15760243567ffffffffffffffff81116101c157611777903690600401611b63565b6044359067ffffffffffffffff82116101c15760407ffffffffffffffffffffffffffffffffffffffffffffffffffffffffffffffffc83360301126101c157604051916117c383611b91565b806004013567ffffffffffffffff81116101c1578101366023820112156101c15760048101356117f281611c1b565b916118006040519384611bda565b818352602060048185019360051b83010101903682116101c157602401915b81831061184e575050508352602401359263ffffffff841684036101c15761060d936020840152600435611dbc565b823573ffffffffffffffffffffffffffffffffffffffff811681036101c15781526020928301920161181f565b346101c15760807ffffffffffffffffffffffffffffffffffffffffffffffffffffffffffffffffc3601126101c1576004355f525f60205260405f206024355f5260205260405f206044355f5260205260405f206064355f52602052602060ff60405f2054166040519015158152f35b346101c1575f7ffffffffffffffffffffffffffffffffffffffffffffffffffffffffffffffffc3601126101c157602060405173ffffffffffffffffffffffffffffffffffffffff7f0000000000000000000000000000000000000000000000000000000000000000168152f35b346101c15760207ffffffffffffffffffffffffffffffffffffffffffffffffffffffffffffffffc3601126101c1576040517f2c3c02a4000000000000000000000000000000000000000000000000000000008152600435600482015260208160248173ffffffffffffffffffffffffffffffffffffffff7f0000000000000000000000000000000000000000000000000000000000000000165afa80156102a2576020915f9161082057506040519015158152f35b5f7ffffffffffffffffffffffffffffffffffffffffffffffffffffffffffffffffc3601126101c15763389a75e1600c52335f526202a30042016020600c2055337fdbf36a107da19e49527a7176a1babf963b4b0ff8cde35ee35d6cd8f1f9ac7e1d5f80a2005b346101c1575f7ffffffffffffffffffffffffffffffffffffffffffffffffffffffffffffffffc3601126101c1576020611aae611cb6565b63ffffffff60405191168152f35b346101c1575f7ffffffffffffffffffffffffffffffffffffffffffffffffffffffffffffffffc3601126101c1577f1a90a21900000000000000000000000000000000000000000000000000000000815260208160048173ffffffffffffffffffffffffffffffffffffffff7f0000000000000000000000000000000000000000000000000000000000000000165afa80156102a2575f90610a9657602090604051908152f35b9181601f840112156101c15782359167ffffffffffffffff83116101c157602083818601950101116101c157565b6040810190811067ffffffffffffffff821117611bad57604052565b7f4e487b71000000000000000000000000000000000000000000000000000000005f52604160045260245ffd5b90601f7fffffffffffffffffffffffffffffffffffffffffffffffffffffffffffffffe0910116810190811067ffffffffffffffff821117611bad57604052565b67ffffffffffffffff8111611bad5760051b60200190565b6004359073ffffffffffffffffffffffffffffffffffffffff821682036101c157565b6004359061ffff821682036101c157565b601f82602094937fffffffffffffffffffffffffffffffffffffffffffffffffffffffffffffffe093818652868601375f8582860101520116010190565b519063ffffffff821682036101c157565b6040517f1cfe795100000000000000000000000000000000000000000000000000000000815260208160048173ffffffffffffffffffffffffffffffffffffffff7f0000000000000000000000000000000000000000000000000000000000000000165afa9081156102a2575f91611d2c575090565b90506020813d602011611d5b575b81611d4760209383611bda565b810103126101c157611d5890611ca5565b90565b3d9150611d3a565b908160209103126101c1575180151581036101c15790565b8051821015611d8f5760209160051b010190565b7f4e487b71000000000000000000000000000000000000000000000000000000005f52603260045260245ffd5b929190915f92815151908315611d8f57803560f81c95600195945f5b888110611dea57505050505050505050565b81881015611d8f578784019660205f608060428b3560f81c9c019a60216040519189835260ff601b604183013560f81c011686840152600181013560408401520135606082015282805260015afa156102a25773ffffffffffffffffffffffffffffffffffffffff5f5116908115611f2c578215908115611f1f575b5015611ef7578886811015611ecf57611e9573ffffffffffffffffffffffffffffffffffffffff918951611d7b565b511603611ea757600101969596611dd8565b7f08ada082000000000000000000000000000000000000000000000000000000005f5260045ffd5b7fba5b4315000000000000000000000000000000000000000000000000000000005f5260045ffd5b7f4fe17a6f000000000000000000000000000000000000000000000000000000005f5260045ffd5b60ff91501689115f611e66565b7fba0e0fd5000000000000000000000000000000000000000000000000000000005f5260045ffd5b908160209103126101c1575167ffffffffffffffff811681036101c15790565b908160209103126101c1575161ffff811681036101c15790565b909392938483116101c15784116101c1578101920390565b92919267ffffffffffffffff8211611bad5760405191611fee60207fffffffffffffffffffffffffffffffffffffffffffffffffffffffffffffffe0601f8401160184611bda565b8294818452818301116101c1578281602093845f960137010152565b919091357fffff0000000000000000000000000000000000000000000000000000000000008116926002811061203e575050565b7fffff000000000000000000000000000000000000000000000000000000000000929350829060020360031b1b161690565b9190806001116101c1577fffffffffffffffffffffffffffffffffffffffffffffffffffffffffffffffff833560f81c0161214f57806005116101c157600183013560e01c90806006116101c1576005840192604260ff853560f81c16029384600601806005116101c15783106101c15791600185019161214b6120fc6104a68460068a01818c611f8e565b60208151910120604051602081019182526020815261211c604082611bda565b5190209261213561049260108a01600e8b01848d611f8e565b60f01c9881603960108b840101359a0191611f8e565b9091565b7fbcd5ac7a000000000000000000000000000000000000000000000000000000005f5260045ffd5b9061218191612070565b959491929097939795949697612196836122a0565b928351511561223a5763ffffffff60208501511642116121f6575b506121bd835151612262565b82106121ce576121cc93611dbc565b565b7f2166ec35000000000000000000000000000000000000000000000000000000005f5260045ffd5b63ffffffff80612204611cb6565b16911603612212575f6121b1565b7f11927a6e000000000000000000000000000000000000000000000000000000005f5260045ffd5b7f3d0cdd52000000000000000000000000000000000000000000000000000000005f5260045ffd5b610100811015612278576003600191821b040190565b7f9308529b000000000000000000000000000000000000000000000000000000005f5260045ffd5b5f60206040516122af81611b91565b60608152015263ffffffff604051917ff951975a0000000000000000000000000000000000000000000000000000000083521660048201525f8160248173ffffffffffffffffffffffffffffffffffffffff7f0000000000000000000000000000000000000000000000000000000000000000165afa9081156102a2575f91612336575090565b90503d805f833e6123478183611bda565b8101906020818303126101c15780519067ffffffffffffffff82116101c157016040818303126101c1576040519161237e83611b91565b815167ffffffffffffffff81116101c15782019080601f830112156101c1578151906123a982611c1b565b926123b76040519485611bda565b82845260208085019360051b8201019182116101c157602001915b8183106123f25750505082526123ea90602001611ca5565b602082015290565b825173ffffffffffffffffffffffffffffffffffffffff811681036101c1578152602092830192016123d2565b7fffffffffffffffffffffffffffffffffffffffffffffffffffffffff7487392754330361244957565b6382b429005f526004601cfd5b73ffffffffffffffffffffffffffffffffffffffff16807fffffffffffffffffffffffffffffffffffffffffffffffffffffffff74873927547f8be0079c531659141344cd1fd0a4f28419497f9722a3daafe3b4186f6b6457e05f80a37fffffffffffffffffffffffffffffffffffffffffffffffffffffffff748739275556fea2646970667358221220a50a7ca07810e0535671dd78021bd2a92d7edd99ad8a4f68994ae13b5d3ff1ee64736f6c634300081c0033","linkReferences":{}},"methodIdentifiers":{"WORMHOLE()":"35e78cfe","cancelOwnershipHandover()":"54d1f13d","chainId()":"9a8a0592","completeOwnershipHandover(address)":"f04e283e","efficientRequireProven(bytes)":"ae0dd770","evmChainId()":"64d42b17","getBlockChainIdtoChainIdentifier(uint256)":"db9526b9","getChainIdentifierToBlockChainId(uint16)":"4a656171","getCurrentGuardianSetIndex()":"1cfe7951","getGuardianSet(uint32)":"f951975a","getGuardianSetExpiry()":"eb8d3f12","governanceActionIsConsumed(bytes32)":"2c3c02a4","governanceChainId()":"fbe3c2cd","governanceContract()":"b172b222","isFork()":"e039f224","isInitialized(address)":"d60b347f","isProven(uint256,bytes32,bytes32,bytes32)":"3ff04aff","messageFee()":"1a90a219","nextSequence(address)":"4cf842b5","owner()":"8da5cb5b","ownershipHandoverExpiresAt(address)":"fee81cf4","parseAndVerifyVM(bytes)":"c0fd8bde","parseVM(bytes)":"a9e11893","quorum(uint256)":"f8ce560a","receiveMessage(bytes)":"f953cec7","renounceOwnership()":"715018a6","requestOwnershipHandover()":"25692962","setChainMap(uint16,uint256)":"448c28f5","submit(address,bytes[])":"87d64b92","transferOwnership(address)":"f2fde38b","verifySignatures(bytes32,bytes,(address[],uint32))":"43558667"},"id":113}